:020000041000EA
:1000000000B5324B212058609868022188439860DF
:10001000D860186158612E4B002199600221596106
:100020000121F02299502B49196001219960352056
:1000300000F044F80222904214D00621196600F024
:1000400034F8196E01211966002018661A6600F04E
:100050002CF8196E196E196E052000F02FF8012189
:100060000842F9D1002199601B49196000215960AB
:100070001A491B48016001219960EB211966A021F2
:10008000196600F012F800219960164914480160C1
:100090000121996001BC002800D000471248134993
:1000A000086003C880F30888084703B5996A0420EC
:1000B0000142FBD001200142F8D103BD02B5186610
:1000C0001866FFF7F2FF186E186E02BD00000240BE
:1000D000000000180000070000035F00212200005C
:1000E000F4000018222000A00001001008ED00E03C
:1000F00000000000000000000000000074B24E7A12
:1001000000200420F7010010C3010010C5010010F9
:10011000C1010010C1010010C1010010C101001097
:10012000C1010010C1010010C1010010C701001081
:10013000C1010010C1010010C9010010CB01001065
:10014000CD010010CD010010CD010010CD01001037
:10015000CD010010CD010010CD010010CD01001027
:10016000CD010010CD010010CD010010CD01001017
:10017000CD010010CD010010CD010010CD01001007
:10018000CD010010CD010010CD010010CD010010F7
:10019000CD010010CD010010CD010010CD010010E7
:1001A000CD010010CD010010CD010010CD010010D7
:1001B000CD010010CD010010CD010010CD010010C7
:1001C00000BE00BE00BE00BE00BE00BE00F04BF888
:1001D000103800BEF2EB8871101E00102C1E0010AB
:1001E0003402001090A31AE700202149086006C8D5
:1001F00081F3088810471F48006800282FD10DA4FC
:100200000ECC002902D000F012F8F9E71A491B4A77
:10021000002000E001C19142FCD1194988471949E9
:1002200088471949884700BEFDE701C901C29A42C3
:10023000FBD370472C1E0010C0000020700300206C
:10024000DC2000100000042000000420DC2000104E
:1002500000100420001004200000000070470B482C
:1002600001F090FA0047EFF30580C0B2704700003C
:1002700008ED00E0000000D07003002048080020D6
:10028000691200105D03001059130010575600004A
:1002900006005250ABB36053BC1D00100600525014
:1002A000861C0302CC1D0010060052505422A29D51
:1002B000DC1D001005005250DE65F468DC200010E3
:1002C000F8B5C0460448054B10B5834203D0044B33
:1002D000002B00D0984710BD700300207003002051
:1002E0000000000006480749091A8B10C90FC918F9
:1002F00010B5491003D0044B002B00D0984710BD17
:1003000070030020700300200000000010B5074CAF
:100310002378002B09D1FFF7D5FF054B002B02D026
:10032000044800E000BF0123237010BD70040020CA
:1003300000000000601D0010054B10B5002B03D01D
:100340000449054800E000BFFFF7CCFF10BDC046E0
:100350000000000074040020601D0010F0B5C646C7
:100360000E2000B500F07CF80F2000F079F8102086
:1003700000F076F8112000F073F8D0248027802652
:100380008025802324069B02FF0136026D026762EE
:100390001220666265626362984600F061F813207D
:1003A00000F05EF88023DB02A36280231B03A362BC
:1003B000434602226761A661A5616361274B012064
:1003C0001978944623005C685A68A40CD20C002962
:1003D0002AD1224010421BD142469F615E615D617D
:1003E0009A6120422BD15C685A68A40CD20C22403E
:1003F0001042F8D042465F619E615D619A615A6821
:100400005A685C685A68A40CD20C22401042E3D0AF
:10041000424600215F619E619D615A615C685A6835
:10042000A40CD20C0029D4D00129E0D003290AD091
:1004300064468A1EA243D2B2002AC4D1E1E75C68B6
:100440005A68A40CD20C22401042F8D042469F6158
:100450005E619D615A615A685A68D2E7430600207E
:100460000123D0228340120693629361094A8300DC
:100470009446402263441968C0004A40C02111409C
:100480008022520113431960034B9C4605236044AC
:100490004360704704C0014000400140F8B5EFF3ED
:1004A000108772B60E4E3368002BFCD0BFF35F8FFF
:1004B000CB08C4180725A446C45C01230D40AB40FB
:1004C00018002040234208D1624623431370BFF333
:1004D0005F8F306087F31088F8BD100000F03EFF9A
:1004E0002C0100D0024B18688007C00F7047C0462F
:1004F00000C006400021044B044ABFF35F8F02C3D3
:100500009342FAD17047C046000100D0800100D06C
:10051000044A1078431CDBB2172B00D91023137048
:100520007047C046B802002001238340002904D050
:10053000034A1360034A13607047034A1360FBE7E2
:1005400080E200E000E100E080E100E0024B1030DA
:100550009B688000C058704700ED00E070B50D004A
:10056000EFF3108672B60F4A1368002BFCD0BFF36E
:100570005F8F0D4B10309B6884001B590B4A9342D0
:1005800003D09D4201D000F001FF074B9B681D5135
:10059000BFF35F8FBFF35F8F0022024B1A6086F3B9
:1005A000108870BD240100D000ED00E0CD010010E6
:1005B000F0B5DE4657464E464546E0B50C0083B0E2
:1005C000EFF3108A72B65A4A1368002BFCD0BFF3BF
:1005D0005F8F1022914681444A46564B96009B6895
:1005E0009D59554B98469D4205D0A54216D0534F74
:1005F000EB1B2F2B14D94F4B9B689D51BFF35F8F83
:10060000BFF35F8F00224A4B1A608AF3108803B051
:100610003CBC90469946A246AB46F0BD1D00EAE7B9
:10062000012383409B465A46454B1B681A40009263
:100630005A46444B1A60BFF35F8FFFF714FE0190D8
:10064000002803D0814501D000F0A0FE01232A003C
:100650009A4393689C4208D160E04B005B189B0072
:10066000FB189968A14211D01A00062151560029A1
:10067000F3DA009B002B05D05A46334B1A60304BFF
:100680001A60B8E75A462F4B1A60B4E7062159564C
:10069000002922DB4A00501880003C188046A068E0
:1006A0009860E079D871062020569871A0797F284B
:1006B00024D8A488F81A6405241544440019E024B9
:1006C0000005400D24022043988052181F4B9200D1
:1006D000BF181A781970BA71CBE70199002910D1A7
:1006E000FF3191711A49918018490A789A71194A13
:1006F000DB1B5B415A43120D0A70BAE7BD200002B2
:10070000E2E7154A1549D21A083A5002400D014352
:100710009980134952080A43DA80AAE70621515604
:1007200013000029B6DA019A002AEAD14546DBE730
:10073000240100D000ED00E0CD010010BC0200203B
:1007400000E100E080E100E080E200E042060020FD
:1007500000BDFFFFAAAA0000F602002000F0FFFF84
:1007600000F8FFFFF8B5012504000543FFF77BFD06
:100770000300EFF3108672B621490A68002AFCD004
:10078000BFF35F8F1F4A20001F49801A4041414339
:10079000090D1E489B00876849B2FF58AF421CD024
:1007A0000623D3568B421CD01223D3568B4222D021
:1007B0001E23D3568B4220D02A23D35603208B42AC
:1007C00010D0134B1A781970A271BFF35F8F0022FB
:1007D0000B4B1A6086F31088F8BD82680D48D05024
:1007E000EFE7002043001B189B00D218FF239371F2
:1007F000094B9380E5E70120F4E70220F2E7C046C9
:10080000240100D0BC020020AAAA000000ED00E0F4
:1008100042060020CD01001000BDFFFF054B064A37
:100820001360064A136053609360D3601361536191
:10083000936170478080808000E400E004E400E081
:10084000024B9C46614489000160704740000034BF
:1008500083680B4810B58446614462440901120163
:100860009A18591854684B6801209C4201D802D04C
:100870000020C0B210BD12680B689A42F9D8F7E7A1
:10088000FFFFFF0FF8B5574645464E46DE46E0B53A
:1008900099460CAB19780DAB1B78050090469A462B
:1008A0000768002912D1BE7B002E45D074003B683A
:1008B000A419033C1B195A783100BA73002A00D1DD
:1008C000FA7300229A705A701A7003E00E004C00FE
:1008D0006418033C2C4B00229C46AB6861449C4648
:1008E0004346090161440B604B464B600A9B8B6099
:1008F0000B9BCB603B681B199A705A701A707B7BFC
:100900009B46002B2CD032005946B8687B6898472C
:100910003A68002817D05B4658465B005B441419C0
:10092000033BA070D118D35C002B00D063705B46F2
:100930000E707B73B34514D030003CBC9046994692
:10094000A246AB46F8BD5B465B005B44033BD31855
:100950009E701119125D002A00D05A705B460B7010
:100960007E7342464B46287D00F0DEF9041E06D019
:100970005346002B03D13100286800F01BFC0E9B6E
:10098000002BD9D01C70D7E7FFFFFF0FF0B5DE4674
:100990004E46574645460023E0B58DB00A936B4B53
:1009A0008200D3580B90994600239B464B460793F1
:1009B00000F06AF9079C06000F006268EFF31085EB
:1009C00072B61368002BFCD022000794BFF35F8F30
:1009D0002468637B9946002B67D092685C4B9046F5
:1009E0004B441B01984443461A685B681000190089
:1009F000801BB94100295FDD0B9800F095F90023B9
:100A00000026984600279A46079C6368BFF35F8FCD
:100A10005A461A6085F310885346002B08D10028E7
:100A2000C6D10DB03CBC90469946A246AB46F0BD3F
:100A30000A9B414618024B461843D047089009913B
:100A40006268EFF3108572B61368002BFCD0079430
:100A5000BFF35F8F0899099A002A48DB114303D03E
:100A6000079B1B69002B5DD1079B1B68DA7B002A63
:100A700007D051008A1819688C4649466244033AE7
:100A800051704A46DA734B46079A013BD168CA5CFB
:100A90000132CA545B46079A13615368BFF35F8FF4
:100AA0005A461A6085F3108882E70023002698468C
:100AB00000279A460020A7E7002901D100289BD1F2
:100AC0000021200000F0D8FA43461E685F689B684A
:100AD000079A9A464346DB689846D3684B44013BE5
:100AE0001B780A931B020343136100208CE72369E0
:100AF000002BB9D033003C005B1A94411A0023004C
:100B0000A74219D89F421BD0594604910121039155
:100B10004946029141460191514607980091FFF7DD
:100B2000B1FEB7E700F0B0F8089A099B06000F0085
:100B300092197B419942E5D901225242D317E3E74A
:100B40009642E1D901225242D317DDE71006002078
:100B5000FFFFFF0F10B5124C6368002B04D00A2171
:100B60001048FFF76DFE10BD23000F4A10212068CA
:100B700000F0A0F9032000F07BF8032000F046F914
:100B800003200A4900F08AF8FFF7C2FC084B9C4694
:100B9000032360442375074B80006060DC60DEE760
:100BA000040300202C060020510800108D090010BD
:100BB0004000003410060020F0B5D6464F464646A9
:100BC000C0B5EFF305833F22134018001038EFF350
:100BD000108C72B6204D2A68002AFCD0BFF35F8FBC
:100BE0000122110081401D4C884661631C49170099
:100BF0000E788A463100C1400F400A4215D019498B
:100C00008200646A51588C4219D3174BD25843461C
:100C10009E4353461E70BFF35F8F00232B608CF3FF
:100C20001088002A06D0904704E0BFF35F8F2F6042
:100C30008CF310881CBC90469946A246F0BD0B4A26
:100C40009B00904643441A681A60BFF35F8F0023ED
:100C50002B608CF31088EDE7280100D000400540A0
:100C600044060020300600208C040020D03F0540C0
:100C700010B50100024A0348FFF710FC10BDC04642
:100C8000601D001041060020034B596A0A00986A53
:100C9000596A8A42FAD170470040054070B5040095
:100CA0000D00EFF3108672B61A4A1368002BFCD0C1
:100CB000BFF35F8F002D1BD02000FFF747FC1649C4
:100CC00081420AD02000FFF749FC01212000FFF7F4
:100CD0002BFC0123A340114A1360114BA400E550E3
:100CE000BFF35F8F00220B4B1A6086F3108870BD34
:100CF0000B4BA200D5500122A2400A4920000B78DC
:100D000093430B700449FFF753FC00212000FFF7C9
:100D10000BFCE5E7280100D0B90B00103860054056
:100D20008C04002044060020F0B54F46D6464646C7
:100D3000C0B50700304C616A0D00A66A616AA9421D
:100D4000FAD18B4208D805D001201CBC90469946A8
:100D5000A246F0BDB242F7D9EFF3108972B6274828
:100D600001680029FCD0BFF35F8F01252449BD40F5
:100D70008C460978204C0E002E438846F1B28A46F4
:100D8000614650460870391D1E48890065630A5146
:100D9000B9000B50216A0020294219D0616A08006D
:100DA000A66A616A8142FAD18B4219D801D1B24256
:100DB00016D8C2451DD0104B1F201D625D63012354
:100DC0000740BB40104A1E381360634642461A7003
:100DD000BFF35F8F0022094B1A6089F31088B4E7D4
:100DE0000020BFF35F8F0022044B1A6089F3108844
:100DF000ABE70120ECE7C04600400540280100D0E9
:100E0000440600203006002080E200E010B5EFF339
:100E1000108472B60A490B68002BFCD0BFF35F8FB9
:100E200001238340074A0848136202789A430270FC
:100E3000BFF35F8F00230B6084F3108810BDC046A2
:100E4000280100D0004005404406002070B5050090
:100E50000E001400002924D0002A24D080686B687A
:100E60009847296800280ED063001B197200033BC5
:100E70009219CB18033A9E7088188A5C002A14D104
:100E8000047030000EE073009B196200033B1219DE
:100E9000CB18033A9C7088188A5C002A00D05A70DC
:100EA0000670200070BD0800FCE75A700470300026
:100EB000F8E7C04630B583600023CCB243730133FA
:100EC000047342608373C4730D000068012C06D95B
:100ED000421C0133DBB2137003329C42F9D1FF2173
:100EE00029404B005918002340180338437030BD87
:100EF000F8B5CE46474606000C0080B5002907D05D
:100F00004D0003686D18033D5A195778002F04D11E
:100F100020000CBC90469946F8BD7900C9190339E8
:100F20008846434459788946002159705170736846
:100F30003A002100806898473368002814D0424660
:100F40009A18947059195B5D002B00D053700F7084
:100F5000270049463000FFF7CBFF39000200300080
:100F6000FFF774FF0400D3E7424641465D19AF70B6
:100F70009A185B5C002B00D06B701470E9E7C046D8
:100F8000F0B557464546DE464E46E0B50D006B00CF
:100F900001685B19DF1E0400C85D83B00192CA19A5
:100FA00000284CD043001B18033BCB185E78B44696
:100FB000002E16D1019E002E3ED0E67B002E04D0DE
:100FC00073009B19CB18033B5D70E57300282FD18C
:100FD0000023537003B03CBC90469946A246AB46F2
:100FE000F0BD72006244033A89184A7890460022A4
:100FF0004A7091465A70010032002000FFF726FF28
:1010000043468246002B07D05B0021684344033BE4
:10101000CB185A78002A16D1424651462000FFF7D5
:1010200015FF2168019BCA19002BC6D10028CFD01B
:1010300043001B18033BCB1800219970C8E7019BA4
:10104000002BBAD1C4E7500080180338091848783B
:10105000834648464870587041462000FFF7F6FE28
:10106000594680462000FFF743FF4146020020001A
:10107000FFF7ECFE8046CFE7F0B54E464546DE462C
:101080005746E0B5467B040075000068AD19033D86
:1010900083B00191415D421900294ED04B005B188D
:1010A000033BC3185F78BC46002F18D1019D002D6B
:1010B00040D0E57B002D04D06B005B19C318033BC7
:1010C0005E70E673002931D10023300053706173E4
:1010D00003B03CBC90469946A246AB46F0BD7A00B0
:1010E0006244033A80184278934600224270914647
:1010F0005A7020003A00FFF7A9FE5B468046002B9D
:1011000007D05B0021685B44033BCB185A78002A68
:1011100017D15A4641462000FFF798FE019B010077
:1011200020684219002BC4D10029CDD04B005B1898
:10113000033BC31800209870C6E7019B002BB8D171
:10114000C2E750008018033809184878824648469C
:101150004870587059462000FFF778FE5346834682
:10116000002B07D05B0021685344033BCB185A780F
:10117000002A06D1594652462000FFF767FE8346F3
:10118000C7E7500080180338091848464F78487060
:10119000587051462000FFF759FE39008146200063
:1011A000FFF7A6FE494602002000FFF74FFE8246E9
:1011B000E0E7C04670B5040000292CD0437B8B4289
:1011C0002ED0056848004018033828188278002A75
:1011D00021D053009B18033BEA5CEE188A4202D1EF
:1011E0001BE0002A08D053009B18033BEB185A78E9
:1011F0008A42F6D142785A700023012283704370EC
:101200002000FFF7BDFE617B02002000FFF71EFEFD
:101210006073012000E0002070BD43783370EBE77D
:1012200001221900FFF7ACFE60730120F4E7C0460D
:1012300010B50400FFF76CF901002000FFF700FB78
:10124000FF232371BFF35F8F10BDC04610B50400AC
:10125000FFF75EF901002000FFF7F2FAFF23A380F9
:10126000BFF35F8F10BDC0462C4B2D4A70B51A607E
:101270002C4A2D4B2D491A6010008B689843FBD1E6
:101280002B4C2C4B9C4209D2013B1D1BAD08013558
:10129000AD002D1908CC9847AC42FBD100F07CF88A
:1012A000254A214B1A60214A9368DB018033FBD128
:1012B0004022224B224C234D9A675A671A67DA66FE
:1012C000AC4208D223682000002B21D00834FFF75D
:1012D000BDFFAC42F6D31C4C1C4DA168C0222800B7
:1012E00000F070FBA560FFF705F9FFF797FAFFF72D
:1012F00031FC174C174B9C4209D2013B1D1BAD081A
:101300000135AD002D1908CC9847A542FBD170BD21
:101310000834FFF78DFFAC42D4D3DCE700E0004097
:10132000BFCDFBFEFE7F3C0000F0004000C000404F
:101330005803002068030020FFFFFF0100F0014078
:10134000500300205803002000ED00E000000020C2
:10135000680300207003002000BEFDE70FB400B555
:10136000084883B000F058FC049B002B07D005A967
:101370001800019100F0E6F9034800F04DFC00BEB2
:10138000FDE7C046841D0010941D001010B50148F3
:10139000FFF7E4FF981D001030B50C2083B000F07B
:1013A000ADF9FFF79FF800280ED0944B944A1A60CD
:1013B0005A609A60DA601A615A619A61DA611A6257
:1013C000904A5A6203B030BD8F4CA06700F09EF97E
:1013D00001228E4B1A60636C012BFCD103228C4BD3
:1013E0001A60894A936B012BFCD101330121894A90
:1013F00089480093043300F02DF90523874A0093B0
:101400000121874800F026F9864B5A68FF2A02D846
:10141000802252005A608022784C7D4B2169120153
:10142000804D1A60002905D0606900F0D9F90130BB
:101430000138FDD1E0217B4B02201A681140802247
:1014400052012A431160196848400321014011608C
:1014500004219A681142FCD08022802192012A4303
:1014600009011160802252005A606F4B23616F4B5B
:101470005968FF2900D85A6003226C48634B012148
:101480001A60020093681942FCD0E02513681D40E1
:1014900080235B0103431D6012684A400321114011
:1014A00019600221614A93681942FCD0802380218F
:1014B0009B0103430901196080215D4B4900516084
:1014C00063615C4B5A68FF2A00D8596080225A4BEE
:1014D000E1691201574D1A60002905D0606900F0DA
:1014E0007FF901300138FDD1E02252490B681A40E2
:1014F00080235B012B431A60802380229B012B43B6
:1015000012011A6080223E4B52004A60E3614B4B4D
:101510005968FF2900D85A608022494B216A12017C
:10152000464D1A60002905D0606900F059F9013074
:101530000138FDD1E02241490B681A4080235B014C
:101540002B431A60802380229B012B4312011A60D7
:10155000802380225B004B60294BD2022362394BEF
:101560005968914200D25A608022374B616A120159
:10157000344D1A60002905D0606900F031F901305E
:101580000138FDD1E0222F490B681A4080235B010E
:101590002B431A60802380229B012B4312011A6087
:1015A0008023DB024B60174B6362284B5A68FF2A8B
:1015B00002D8802252005A608022254BA169120174
:1015C000224D1A60002905D0606900F009F9013048
:1015D0000138FDD1E0221D490B681A4080235B01D0
:1015E0002B431A60802380229B012B4312011A6037
:1015F00080235B004B600E4BA361E3E69C0500205B
:10160000006CDC021BB70000008000403CB00040D2
:1016100030B00040002F685900800240008C86479F
:1016200000C0024030800040001BB7003C800040FA
:10163000405973075480004054B00040608000401F
:1016400060B000406C8000406CB0004048800040BA
:1016500048B00040F8B504000C2017001D000E0033
:1016600000F0BEF84101091A8B01591AC900091886
:101670008901380000F0B4F8069A2B0412031343D2
:101680002268002A21DB194AA21851424A418021CE
:1016900049018C4652420A40154962440A60154984
:1016A0000A60154917008D68AF43FBD1C021221D88
:1016B0008901114321222660A0600A602268002A65
:1016C000FCDAE36008230B60F8BD3F2221680A4082
:1016D000B242D8D1A2681205120D8242D3D1EE21B6
:1016E000E268C9020A409A42CDD1EDE70040FDBF51
:1016F00000E0004000F0004000C000408023024AAB
:101700009B000343D362704700800540AA23064A2A
:101710001B0113602F230549D360054B19605368E3
:10172000002BFCDA7047C0460040024000B0FA00CF
:101730000060024010B5002800D110BD00F01AFA78
:10174000FBE7C04610B5094A0300146884B0002CBA
:1017500008D0012200910648524203A9A047012067
:1017600004B010BD00F058FA0020F9E70C06002084
:101770003517001001480421014B184730030020A1
:10178000A5170010142310B50100188804331B8816
:10179000984710BD162310B50100188802331B8826
:1017A000984710BDF0B5C64600B5002916D01423E1
:1017B00004000125984618278900461843462168E9
:1017C00018883B88984701C4431E98414042054011
:1017D000A642F3D1280004BC9046F0BD0125F9E7EC
:1017E000114A936F9B0813D210665166002905D0E9
:1017F000FFE7FFE7FFE7516F106F704704B5002860
:1018000001D00020C04300F093FA002104BDC0467F
:10181000F0B5146E556E576F166FFFF7E5FF14663F
:10182000556657671667F0BD000000D0132370B5EA
:101830001D78012D15D010DD2748FFF7ABFF274C91
:1018400001008022200000F0BDF8022D06D02448BF
:10185000FFF798FF234B186070BD204C224AA2640A
:10186000F5E72E001D4C204AA3085B421E401D4296
:101870002FD0330022602020B1006118801B0A6045
:101880004A608A60CA600A614A618A61CA610A6202
:101890004A628A62CA620A634A638A63CA630A64E2
:1018A0004A648A64CA640A654A658A65CA650A66C2
:1018B0004A668A66CA660A674A674008102803D1E2
:1018C0008A67CA67A264C2E71E339B00E250A26423
:1018D000BDE70023CFE7C046534400004806002080
:1018E0004C33000028060020ED18001007B56046B4
:1018F00001880A0A0230DF2AFAD1C9B2820804D369
:10190000028840880004104300E00068014A5050FB
:10191000039007BD48060020132310B512481C7819
:10192000FFF738FF0100012C0AD003DD80220F48A9
:1019300000F048F80E48FFF725FF0E4B186010BD69
:101940000A4C5422200000F03DF80B4B6365A36560
:10195000E36523666366A366E36623676367A3673D
:10196000E3672362E361E5E7534600004807002090
:101970004C330000280600207D19001007B5604692
:1019800001880A0A0230DF2AFAD1C9B2820804D3D8
:10199000028840880004104300E00068014A50506B
:1019A000039007BD4807002001480421014B184758
:1019B00040030020A5170010014B1B6818470000CA
:1019C00040030020014B5B681847000040030020E3
:1019D000030010B508001B681100984710BDC046F1
:1019E000F8B54746CE4680B5437C07000D0016008B
:1019F000002B37D000240020002A1EDD4B1E984605
:101A00001B4B9946002C2BD043461B5D0D3B5A4285
:101A10005341DBB22A5D0A2A13D00134A642F1DC1D
:101A2000864203DD311A3B6828189847AD19013DFD
:101A30002B780D3B5A4253413B740CBC904699465F
:101A4000F8BD002BE9D1A04203DA211A3B6828181F
:101A50009847484602213B68013498472000DDE75B
:101A60003B7CD7E70368110028009847E5E7C046AC
:101A70000C1E0010F0B557464E464546DE461C008B
:101A8000D023E0B51B061F68354B83B006000D0060
:101A9000180001A991469A4600F052F980460028A4
:101AA00008D1019B7FB29F4204D0504600F050F90C
:101AB000012398466B1C03D1300000F0F3F80500B9
:101AC000002C2AD1274F284B1C68002C18D04B46DD
:101AD000002B24D1254B994602E0E468002C0FD05E
:101AE0002368002BF9D04B461B68002B01D0A34282
:101AF000F3D120002A003100B847E468002CEFD170
:101B00004346002B28D1681E8541E8B203B03CBC97
:101B100090469946A246AB46F0BD154FD3E7134B0E
:101B200099460A239B4602E0E468002CE8D023682B
:101B3000002BF9D04B461B68002B01D0A342F3D1F8
:101B40002A0031002000B8475A466B4620001A711F
:101B500001A90122B847E7E7504600F0E1F8D2E7D3
:101B600050030020E11900100406002008060020A0
:101B7000D1190010F0B54746CE4680B583B06B460C
:101B8000DF1CD02338701B061C68204B060001A9FF
:101B90001800984600F0D4F8051E22D01C4B1C6893
:101BA000002C2AD01B4B994602E0E468002C10D090
:101BB0002368002BF9D04B461B68002B01D0A342B1
:101BC000F3D1200001223900FFF70AFFE468002C5E
:101BD000EED1002D11D1300003B00CBC90469946D7
:101BE000F0BD019B64B29C420BD0404600F0B0F8BF
:101BF000074B01251C68002CD4D1404600F090F81A
:101C0000E9E7034B1C68002CCCD1E4E7500300202B
:101C1000040600200806002070B5040000F042F819
:101C200000230100050001222000FFF723FF084BDD
:101C30001C68002C06D06368002B05D09847E46828
:101C4000002CF8D1280070BDE468002CF3D1F9E72E
:101C50000406002010B5024800F004F810BDC0468C
:101C60002006002030B5002589B00400092200219B
:101C700001A80095FFF7A0FE0922002105A8049500
:101C8000FFF79AFE4B236A466846137004A90D229B
:101C900000F03EF81521082220006944FFF792FE6B
:101CA00009B030BD10B5830727D00378002B26D0AC
:101CB0000300032102E01A78002A1CD001330B42F2
:101CC000F9D119680F4A104C8A188A4322420FD161
:101CD000043319680B4A8A188A43224208D1043314
:101CE0001968084A8A188A432242F1D000E0013379
:101CF0001A78002AFBD1181A10BD0300E1E7002072
:101D0000FAE7C046FFFEFEFE80808080F8B5C04640
:101D100001B40248844601BC604700BFF1010020C5
:101D200001B40248844601BC604700BF5101002055
:101D300001B40248844601BC604700BFB5020020E0
:101D400001B40248844601BC604700BF090100207D
:101D500001B40248844601BC604700BFC1000020B6
:101D6000486172647761726520616C61726D2025D3
:101D70006420616C726561647920636C61696D6572
:101D8000640000000A2A2A2A2050414E4943202A92
:101D90002A2A0A000A0000004861726420617373F5
:101DA0006572740052656C6561736500626F6F7473
:101DB000325F77323571303830000000312E342EEA
:101DC000300000007069636F000000006F7574726E
:101DD000656163685F73696D706C65004F63742043
:101DE000323620323032320006005250BBFF3CB651
:101DF000C41D001006005250E182887FAC1D001007
:101E000006005250D3F07542A41D00100D0A0000C8
:101E1000B4020010A80200109C020010E81D00107F
:0C1E200090020010F41D0010001E0010C5
:101E2C00D02330B500251B0600245D5706E003685F
:101E3C00BFF35F8F1C6081F3108820BF0268EFF343
:101E4C00108172B61368002BFCD0BFF35F8F03793F
:101E5C007F2BECD905710368BFF35F8F00221A60EA
:101E6C0081F3108830BDC046030010B50068EFF355
:101E7C00108472B60268002AFCD0BFF35F8F042274
:101E8C009A56002A0BDB00290FD000200A601B6831
:101E9C00BFF35F8F00221A6084F3108810BDD0222C
:101EAC001206126801201A71F1E70020EFE7C04614
:101EBC000268EFF3108172B61368002BFCD0BFF3ED
:101ECC005F8FFF2303710368BFF35F8F00221A60DB
:101EDC0081F3108840BF7047084810B50378002B79
:101EEC000AD180230649074A5B051C68CC50043391
:101EFC009342FAD10123037010BDC0464006002066
:101F0C009C0400100001001010B5024B01339847DF
:101F1C0010BDC0469C040020054B1A6880239B0012
:101F2C005340C02292001340024A13607047C046CF
:101F3C000C8001400C900140034B1A68C0239B009D
:101F4C009343024A136070470C8001400C9001408F
:101F5C001423F0B5D6464F4646469A468146188815
:101F6C000433C0B598460E001B88274914009847C7
:101F7C00534607001888434624491B889847534604
:101F8C0005001888434622491B8898478046FFF76E
:101F9C00A3FFB847A847FFF7BFFF002C1BD0C021F9
:101FAC0022000827022049053D008B6A1D4018427B
:101FBC000BD0002C09D0131B0D2B1FD84B461B78B4
:101FCC00013C0B6601239C46E1442300002D0CD1FF
:101FDC001343002BE8D1FFF7AFFFC047FFF794FF87
:101FEC001CBC90469946A246F0BD002AF1D00B6E5F
:101FFC00013A3370130001362343EAE7002DD3D0A6
:10200C00002AD1D0F3E7C0464946000045580000ED
:10201C00464300007047C04610000000000000005E
:10202C0000000100000000000000000000000200A1
:10203C000000000000000000000003000000000091
:10204C00000000000000FF000000000000B5486820
:10205C0001318E460047704609380149884700BD5A
:10206C00650700101C030020000000007003002016
:10207C00C40500200000000000000000D405002072
:10208C000000000000000000100000000000000034
:10209C00503300004C330000543300005233000026
:1020AC004D5300004D4300005334000043340000F6
:1020BC000000000000000000A919001075170010A6
:1020CC002D1800101919001039030010551C0010A0
:04000005100001E9FD
:00000001FF
